:100000000C94E0010C9408020C9408020C94080271
:100010000C9408020C9408020C9408020C94080238
:100020000C9408020C9408020C9408020C94080228
:100030000C9408020C9408020C9408020C94080218
:100040000C9455050C9408020C941B050C94E004C8
:100050000C9408020C9408020C9408020C940802F8
:100060000C9408020C940802000000070002010032
:100070000003040600000000000000002A2A2A2ACB
:100080002A2A2A2A2A2A2A2A2A2A2A2A2A2A2A2AD0
:100090002A2A2A2A2A2A2A2A2A2A2A2A2A2A2A2AC0
:1000A0002A2A2A2A2A2A002A2048454C5020202081
:1000B0002020202D20646973706C6179732068653D
:1000C0006C70206D656E752020202020202020205F
:1000D0002A002A2056455253494F4E2020202D20D9
:1000E00063757272656E742070726F6772616D20D5
:1000F00076657273696F6E202020202A002A2020E6
:10010000204C454453202020202D20696E666F72BC
:100110006D6174696F6E2061626F7574204C454427
:100120007320202020202A002A2053544154555364
:10013000202020202D20737461747573206D656EEE
:10014000752020202020202020202020202020205A
:10015000202A002A202020424C494E4B2020202DCE
:100160002064656661756C7420353030206D7320B5
:100170002020202020202020202020202A002A208B
:10018000534554202020202020202D207365747397
:1001900020626C696E6B20696E74657276616C208A
:1001A000202020202020202A002A20202020205229
:1001B00047202020202D20722D6720626C696E6BF5
:1001C000696E6720666F72206475616C204C4544CF
:1001D00020202A002A202020424C494E4B2020205B
:1001E0002D2064656661756C7420353030206D7328
:1001F000202020202020202020202020202A002A0B
:1002000020202052454420202020202D207475726B
:100210006E7320726564204C4544206F6E2F6F66AC
:1002200066202020202020202A002A20202047523B
:1002300045454E2020202D207475726E7320677204
:1002400065656E204C4544206F6E2F6F66662020DA
:100250002020202A002A204C454420202020202035
:10026000202D20616363657373206475616C204C7D
:1002700045442070696E73202020202020202A0011
:100280002A2020204F464620202020202D20747533
:10029000726E73206469676974616C2070696E2086
:1002A0006F66662020202020202A002A2020204F50
:1002B0004E2020202020202D207475726E73206423
:1002C00069676974616C2070696E206F6E202020F0
:1002D000202020202A002A204431332020202020E2
:1002E00020202D20616363657373206469676974DE
:1002F000616C2070696E2031332020202020202A5C
:10030000002A2A2A2A2A2A2A2A2A2A2A2A2A2A2A77
:100310002A2A2A2A2A2A2A2A2A2A2A2A2A2A2A2A3D
:100320002A2A2A2A2A2A2A2A2A2A2A002A20202075
:10033000202020202020202020537570706F7274A0
:10034000656420434D44732020202020202020205D
:1003500020202020202A002A2A2A2A2A2A2A2A2A59
:100360002A2A2A2A2A2A2A2A2A2A2A2A2A2A2A2AED
:100370002A2A2A2A2A2A2A2A2A2A2A2A2A2A2A2ADD
:100380002A0000000000250028002B0000000000CB
:10039000240027002A0004040404040404040202C4
:1003A00002020202030303030303010204081020F4
:1003B00040800102040810200102040810209F055B
:1003C00011241FBECFEFD8E0DEBFCDBF13E0A0E009
:1003D000B1E0E2EEFAE102C005900D92AA38B10751
:1003E000D9F724E0AAE8B3E001C01D92A436B20711
:1003F000E1F711E0C0EED1E004C02197FE010E94B8
:10040000690DCF3DD107C9F70E94DA050C94360A71
:100410000C94000090E0FC01E655FC4F2491FC0197
:10042000EA56FC4F8491882399F090E0880F991F39
:10043000FC01E457FC4FA591B491FC01EE57FC4F31
:10044000859194918FB7F894EC91E22BEC938FBF48
:10045000089508950F931F93CF93DF93FC01A68512
:10046000B7858D01005C1F4FE80188819981019655
:100470008F739927AD014E5B5F4FEA012881398167
:1004800028173907D1F3E80128813981A20FB31F5A
:100490006C93A685B785A05CBF4F11969C938E93F5
:1004A000A689B7892C9181E090E0078C02C0880F63
:1004B000991F0A94E2F7822B8C9381E081A3048830
:1004C000F589E02D80818064808381E090E0DF9178
:1004D000CF911F910F910895CF93DF936DE082E448
:1004E00094E00E942A02EC016AE082E494E00E9417
:1004F0002A028C0F9D1FDF91CF9108950F931F93B8
:10050000CF93DF9300E010E0FC016491EC012196B1
:10051000662341F082E494E00E942A02080F191F2A
:10052000CE01F2CF0E946C02800F911FDF91CF911C
:100530001F910F910895FC0181A1882329F0A489BE
:10054000B5898C9186FFFBCF11A20895FC01A4858B
:10055000B585FD01E05CFF4F2081318132968081BD
:1005600091812817390779F080819181A80FB91FEF
:100570008C91208131812F5F3F4F2F73332731833F
:10058000208390E008958FEF9FEF0895DC011C9683
:10059000ED91FC911D97DF01A05CBF4F2D913C9127
:1005A000119712968D919C9111972817390739F060
:1005B0008D919C91E80FF91F808190E008958FEF55
:1005C0009FEF0895FC0124853585F901E05CFF4F1C
:1005D00080819181329620813181821B930B8F73B0
:1005E0009927089582E494E00C94E202CF92DF927E
:1005F000EF92FF920F931F93CF93DF936C01EB0168
:100600007B01E40EF51E00E010E0CE15DF0561F081
:100610006991D601ED91FC910190F081E02DC60128
:100620000995080F191FF1CFC801DF91CF911F91D4
:100630000F91FF90EF90DF90CF90089590E0FC0134
:10064000E859FF4F2491FC01E655FC4F3491FC0121
:10065000EA56FC4FE491EE2309F43CC0222339F121
:10066000233091F038F42130A9F0223001F584B51F
:100670008F7D12C0263091F02730A1F02430B9F4DC
:10068000809180008F7D03C0809180008F77809360
:1006900080000DC084B58F7784BD09C08091B00003
:1006A0008F7703C08091B0008F7D8093B000F0E021
:1006B000EE0FFF1FEE57FC4FA591B4919FB7F89432
:1006C000611104C08C913095382302C0EC913E2B0F
:1006D0003C939FBF08953FB7F89480918F0390910A
:1006E0009003A0919103B091920326B5A89B05C0F9
:1006F0002F3F19F00196A11DB11D3FBFBA2FA92FA1
:10070000982F8827820F911DA11DB11DBC01CD011D
:1007100042E0660F771F881F991F4A95D1F7089509
:10072000CF92DF92EF92FF92CF93DF936B017C0128
:100730000E946B03EB01C114D104E104F10479F0D0
:100740000E946B036C1B7D0B683E7340A0F381E03D
:10075000C81AD108E108F108C851DC4FECCFDF918D
:10076000CF91FF90EF90DF90CF900895A0E0B1E09F
:100770001A969C911A97E92F092E000CFF0BE05056
:10078000FF4F80839F5F1A969C930895009769F0AE
:10079000FC0101900020E9F73197AF01481B590B8C
:1007A000BC0182E494E00C94F60280E090E00895AD
:1007B000CF93DF930E94C603EC010E946C028C0F62
:1007C0009D1FDF91CF9108958F929F92AF92BF921C
:1007D000EF92FF920F931F93CF93DF93CDB7DEB7C6
:1007E000A1970FB6F894DEBF0FBECDBF162F042F12
:1007F00019A2423008F40AE07E0121E2E20EF11C67
:10080000802E912CA12CB12C612FA50194010E9466
:10081000100D029F1019112481E0E81AF1081A3016
:1008200014F4105D01C0195CF7011083122F732FAF
:10083000CA01232B242B252B39F7C7010E94C6039D
:10084000A1960FB6F894DEBF0FBECDBFDF91CF915A
:100850001F910F91FF90EF90BF90AF909F908F905E
:100860000895CF93DF93682F70E080E090E04AE036
:100870000E94E403EC010E946C028C0F9D1FDF912B
:10088000CF910895CF92DF92EF92FF920F931F9333
:10089000CF93DF93CDB7DEB7E2970FB6F894DEBF04
:1008A0000FBECDBF8C01E0903304CE2C0E2C000C7B
:1008B000DD08C6010E94390A892B21F0C6010E9479
:1008C000440AE82EF0903404CF2C0F2C000CDD08E5
:1008D000C6010E94390A892B21F0C6010E94440AF0
:1008E000F82EE9E3F2E020E030E08E2DEE0C990BDB
:1008F0004F2DFF0C550B608170E06817790779F573
:10090000618170E06417750751F5628170E06017CE
:10091000710729F5220F331F220F331FF901E75CFE
:10092000FD4F13811F921F9383E394E09F938F9356
:100930008DE692E09F938F931F9282E38F93CE0177
:1009400001967C019F938F930E944C0AC7010E94DD
:10095000D8030FB6F894DEBF0FBECDBF21C02F5F06
:100960003F4F34962D30310531F683E394E09F9369
:100970008F938CE792E09F938F931F9282E38F93E4
:100980008E010F5F1F4F1F930F930E944C0AC801E7
:100990000E94D8030FB6F894DEBF0FBECDBF14E19E
:1009A000812FE2960FB6F894DEBF0FBECDBFDF9168
:1009B000CF911F910F91FF90EF90DF90CF9008950E
:1009C0001F920F920FB60F9211242F933F938F9384
:1009D0009F93EF93FF932091E9033091EA03809175
:1009E000EB039091EC032817390731F48091C10093
:1009F0008F7D8093C10014C0E091EB03F091EC0374
:100A0000E755FC4F20818091EB039091EC03019618
:100A10008F7399279093EC038093EB032093C60088
:100A2000FF91EF919F918F913F912F910F900FBE6A
:100A30000F901F9018951F920F920FB60F921124CE
:100A40002F934F935F938F939F93EF93FF93809197
:100A5000C00082FD1CC02091C60080912D049091A1
:100A60002E0440912F045091300401968F739927E2
:100A70004817590771F0E0912D04F0912E04E351CD
:100A8000FC4F208390932E0480932D0402C080910C
:100A9000C600FF91EF919F918F915F914F912F91A0
:100AA0000F900FBE0F901F9018951F920F920FB6C8
:100AB0000F9211242F933F938F939F93AF93BF93E4
:100AC00080918B0390918C03A0918D03B0918E0344
:100AD00030918A0323E0230F2D3720F40196A11DC6
:100AE000B11D05C026E8230F0296A11DB11D20935C
:100AF0008A0380938B0390938C03A0938D03B09310
:100B00008E0380918F0390919003A0919103B091F7
:100B100092030196A11DB11D80938F0390939003C2
:100B2000A0939103B0939203BF91AF919F918F9146
:100B30003F912F910F900FBE0F901F901895E2E4F8
:100B4000F4E01382128288EE93E0A0E0B0E08483A8
:100B50009583A683B7838DE292E0918380838DEEA7
:100B600093E09587848789EA93E09787868785EC69
:100B700090E0918B808B84EC90E0938B828B80EC67
:100B800090E0958B848B81EC90E0978B868B82EC48
:100B900090E0918F808F86EC90E0938F828F84E03D
:100BA000848F83E0858F87E0868F85E0878F81E063
:100BB00080A30895CF93DF93CDB7DEB7C854D10992
:100BC0000FB6F894DEBF0FBECDBF789484B58260B7
:100BD00084BD84B5816084BD85B5826085BD85B5E1
:100BE000816085BD80916E00816080936E0010925F
:100BF00081008091810082608093810080918100DA
:100C0000816080938100809180008160809380006A
:100C10008091B10084608093B1008091B0008160C8
:100C20008093B00080917A00846080937A008091F4
:100C30007A00826080937A0080917A00816080934C
:100C40007A0080917A00806880937A001092C100C7
:100C5000E0915604F091570481E090E09C010090EF
:100C6000620402C0220F331F0A94E2F72083E0914E
:100C70005204F09153041082E0915404F091550411
:100C800027E6208310926304E0915804F091590400
:100C900040819C0100905E0402C0220F331F0A9421
:100CA000E2F7242B2083E0915804F091590440810D
:100CB0009C0100905F0402C0220F331F0A94E2F7E8
:100CC000242B2083E0915804F091590440819C0129
:100CD0000090600402C0220F331F0A94E2F7242B15
:100CE0002083E0915804F091590420810090610420
:100CF00002C0880F991F0A94E2F7809582238083AF
:100D00008DE00E940A0285E00E940A0286E00E94AD
:100D10000A02CE0101964C013E0199E2690E711C56
:100D200001E010E082E494E00E94A6028F3FEFEF22
:100D30009E0709F409C3E091A8038D30910579F06D
:100D40008A30910561F091E09E0F9093A803F0E046
:100D5000ED56FC4F8083943108F4F6C2E92FF0E0A1
:100D6000ED56FC4F10821092A803E3E9F3E02996B8
:100D7000FFAFEEAF299780E090E0AF0143595340B9
:100D80002191222389F0283011F02F3721F4009788
:100D9000A1F30197F2CF8417950721F0DC01AD563E
:100DA000BC4F2C930196E9CFFC01ED56FC4F10820D
:100DB000E0E0F1E08FEF819321E0EA30F207D9F72C
:100DC00010920A01109232041092310410924104E0
:100DD00010924004E12CF12C68E2562E7AE0472E66
:100DE0002996EEADFFAD299731902996FFAFEEAF72
:100DF0002997332009F4C1C0C32C032C000CDD0853
:100E0000F601E75DFE4F8081A82E082E000CBB087E
:100E1000F701EE0FFF1FEE0FFF1FE75EFE4FEA0D1B
:100E2000FB1D2080DF923F92FF92EF92BF928F9343
:100E30008BE892E09F938F931F925F929F928F9285
:100E40000E944C0AC4010E94D8030FB6F894DEBF7A
:100E50000FBECDBF92E0291631F192152CF0E1E0E2
:100E60002E1649F07501BCCFF8E02F1679F129E074
:100E70002216C1F1F7CF8091310490913204FC0128
:100E8000EF5CFB4F328201969093320480933104E1
:100E9000EA94EF2839F782EA92E00E94D803AA2464
:100EA000A394B12CDFCF2091400430914104429EA5
:100EB000C001439E900D1124E0E3CE1AD108C80E64
:100EC000D91ED0924104C0924004CCCF8AEB92E06C
:100ED0000E94D803632D82E494E00E942A020E94BB
:100EE0006C023BC0F2E0EF16F10421F583E10E94B1
:100EF000B603809141040E94B603809140040E9491
:100F0000B60330E0E32E31E0F32E80910A01082E83
:100F1000000C990B9701205031402817390714F520
:100F200084EC92E00E94C603F70181917F010E9448
:100F30003104EBCF8091310490913204FC01EF5CDD
:100F4000FB4F12829C012F5F3F4F3093320420935E
:100F500031040E944204843119F4E12CF12C54C074
:100F60000E94B60310923204109231041092410490
:100F700010924004A12CB12C75CF80913104909136
:100F800032040097D1F1F2E0EF16F10421F583E18C
:100F90000E94B603809141040E94B60380914004F0
:100FA0000E94B60320E0E22E21E0F22E80910A0199
:100FB000082E000C990B9701205031402817390753
:100FC000E4F484EC92E00E94C603F70181917F0172
:100FD0000E943104EBCFFC01EF5CFB4F12829C01BD
:100FE0002F5F3F4F30933204209331040E9442041C
:100FF000843109F4B2CF0E94B6038FEF0E94B6038A
:1010000090E0E92E91E0F92EE114F10409F498C181
:1010100088ED92E00E94D8038EE1A82E6701FFEFD1
:10102000CF1ADF0AF701B080FFEFBF1609F488C1BD
:101030001F92BF928FEE92E09F938F931F92AF9279
:101040007F926F920E944C0AC3010E94D8030FB690
:10105000F894DEBF0FBECDBF9DE0B91609F463C0A2
:101060009B1548F0E2E0BE1609F48AC0FAE0BF160C
:1010700009F4EBC063C126E1B21661F08EEFB81639
:1010800021F095E1B9125AC12FC183E093E00E948B
:10109000D80354C187E593E00E947E028CE293E07E
:1010A0000E947E0281E093E00E947E0286ED92E043
:1010B0000E947E028BEA92E00E947E0280E892E02B
:1010C0000E947E0285E592E00E947E028AE292E022
:1010D0000E947E028FEF91E00E947E0284ED91E0FB
:1010E0000E947E0289EA91E00E947E028EE791E0F2
:1010F0000E947E0283E591E00E947E0288E291E0F8
:101100000E947E028DEF90E00E947E0282ED90E0D0
:101110000E947E0287EA90E00E947E028CE790E0C7
:101120000E947E020BC187E193E00E94D803670111
:10113000E2E0CE0ED11CF7018181813021F048F030
:101140008B3071F0FBC0109214011092130161E01A
:1011500005C0109214011092130160E08DE072C07E
:101160008091130190911401892B29F010921401A0
:1011700010921301E3C01093140100931301DEC019
:101180008EE193E00E94D803F70181816701F3E0CB
:10119000CF0ED11CF70192819E3021F410931801DB
:1011A00000931701853021F1C8F48111C7C0109256
:1011B0001601109215011092180110921701109249
:1011C0000E0110920D0160E085E00E941E03109256
:1011D000100110920F0160E086E034C08630E9F023
:1011E0008B3009F0ABC01093160100931501A6C017
:1011F0001092100110920F0160E086E00E941E0321
:1012000010930E0100930D0161E085E00E941E0322
:10121000109212011092110191C010920E011092C1
:101220000D0160E085E00E941E0310931001009301
:101230000F0161E086E00E941E03109312010093EB
:1012400011017CC00E941E0379C085E293E00E94D8
:10125000D8036701F2E0CF0ED11CF70181818B30FA
:1012600009F06CC06701F3E0CF0ED11CF701B2802A
:101270008CE293E00E94C6038B2D0E943104F3E1BF
:10128000BF125CC0670125E0C20ED11CF70183814B
:10129000948198278927982790930C0180930B01BC
:1012A00081E493E00E94C60360910B0170910C01F0
:1012B0001B01770F4408550857FE0EC06DE282E40B
:1012C00094E00E942A0266277727CB0162197309EE
:1012D000840995094AE003C04AE0C201B1010E94B5
:1012E000E4030E946C022AC083E593E00E94D803C5
:1012F0006701F2E0CF0ED11CF70181818C30F1F44F
:10130000809110018F9380910F018F9380910E0136
:101310008F9380910D018F938DE593E09F938F9331
:101320001F92AF929F928F920E944C0AC4010E941A
:10133000D8030FB6F894DEBF0FBECDBF76016ECED8
:1013400086E793E00E94D8038091130190911401E5
:10135000892BC1F061E08DE00E941E03C0900B015B
:10136000D0900C010D2C000CEE08FF08C701B6014F
:101370000E94900360E08DE00E941E03C701B60149
:101380000E9490038091150190911601892B09F418
:1013900040C080910D0190910E01892BA9F480919C
:1013A0000F0190911001892B79F480911101909196
:1013B0001201892B29F01093100100930F0104C032
:1013C00010930E0100930D01E0900D01F0900E01BD
:1013D0006E2D85E00E941E0360910F0186E00E9441
:1013E0001E03A0900B01B0900C010B2C000CCC083C
:1013F000DD08C601B5010E94900360E0EF2811F0FE
:1014000085E001C086E00E941E03C601B5010E946E
:1014100090038091170190911801892B21F110926E
:1014200016011092150161E085E00E941E0360E044
:1014300086E00E941E03C0900B01D0900C010D2C81
:10144000000CEE08FF08C701B6010E94900360E09F
:1014500085E00E941E0361E086E00E941E03C70132
:10146000B6010E9490030E94F2025CCCF8940C94A6
:101470006F0D85FD0C945D0C806291110C945D0CD8
:1014800081568A51D8F708959111089581548A514F
:1014900008F4805E855A0895AEE0B0E0E2E5FAE037
:1014A0000C94400D0D891E898F89988D26E02C8320
:1014B0001A83098397FF02C080E090E801979E831A
:1014C0008D83AE01455E5F4F698D7A8DCE010196A9
:1014D0000E947C0A4D815E8157FD0AC02F813885AC
:1014E000421753070CF49A01F801E20FF31F108220
:1014F0002E96E4E00C945C0DABE0B0E0E2E8FAE09C
:101500000C94320D6C017B018A01FC01178216825A
:10151000838181FFCCC1CE0101963C01F60193810C
:10152000F70193FD859193FF81917F01882309F451
:10153000BAC1853239F493FD859193FF81917F0182
:10154000853229F4B60190E00E94760CE7CF912C09
:10155000212C312CFFE1F315D8F08B3279F038F4DF
:10156000803279F08332A1F4232D20611DC08D32A9
:1015700061F0803369F4232D216016C0832D8260D1
:10158000382EE32DE4603E2E2AC0F32DF8601DC0F6
:1015900037FC2DC020ED280F2A3040F08E32B9F4F0
:1015A00036FC81C1232D2064322E19C036FE06C0C0
:1015B0008AE0989E200D1124922E11C0EAE02E9E02
:1015C000200D1124222EF32DF0623F2E08C08C3600
:1015D00021F4832D8068382E02C0883641F4F7014B
:1015E00093FD859193FF81917F018111B3CF982F56
:1015F0009F7D9554933028F40C5F1F4F9FE3998390
:101600000DC0833631F0833771F0833509F059C04E
:1016100021C0F801808189830E5F1F4F8824839445
:10162000912C530113C02801F2E04F0E511CF80118
:10163000A080B18036FE03C0692D70E002C06FEF5C
:101640007FEFC5010E946B0C4C018201F32DFF77E7
:101650003F2E16C0280122E0420E511CF801A08046
:10166000B18036FE03C0692D70E002C06FEF7FEFDE
:10167000C5010E94600C4C01F32DF0683F2E8201E1
:1016800033FC1BC0822D90E088169906B0F4B60199
:1016900080E290E00E94760C2A94F4CFF50137FCAA
:1016A000859137FE81915F01B60190E00E94760C32
:1016B00021102A9421E0821A91088114910471F773
:1016C000E8C0843611F0893641F5F80137FE07C0CD
:1016D00060817181828193810C5F1F4F08C060819E
:1016E0007181072E000C880B990B0E5F1F4FF32D95
:1016F000FF763F2E97FF09C0909580957095619574
:101700007F4F8F4F9F4FF0683F2E2AE030E0A301BC
:101710000E94B20C882E861845C0853731F4232DDF
:101720002F7EB22E2AE030E025C0932D997FB92E6E
:101730008F36C1F018F4883579F0B5C0803719F0CC
:10174000883721F0B0C0E92FE061BE2EB4FE0DC095
:10175000FB2DF460BF2E09C034FE0AC0292F26607D
:10176000B22E06C028E030E005C020E130E002C023
:1017700020E132E0F801B7FE07C06081718182810B
:1017800093810C5F1F4F06C06081718180E090E003
:101790000E5F1F4FA3010E94B20C882E8618FB2DEE
:1017A000FF773F2E36FE0DC0232D2E7FA22E8914EB
:1017B00058F434FE0BC032FC09C0832D8E7EA82E57
:1017C00005C0B82CA32C03C0B82C01C0B92CA4FEB2
:1017D0000FC0FE01E80DF11D8081803321F49A2DA8
:1017E000997EA92E09C0A2FE06C0B394B39404C08A
:1017F0008A2D867809F0B394A3FC11C0A0FE06C020
:10180000B21488F4280C922C9B180EC0B21460F409
:10181000B60180E290E00E94760CB394F7CFB21448
:1018200018F42B1802C0982C212CA4FE10C0B6016D
:1018300080E390E00E94760CA2FE17C0A1FC03C0DA
:1018400088E790E002C088E590E0B6010CC08A2DE0
:10185000867859F0A1FE02C08BE201C080E2A7FCAD
:101860008DE2B60190E00E94760C891438F4B6013E
:1018700080E390E00E94760C9A94F7CF8A94F3016B
:10188000E80DF11D8081B60190E00E94760C811078
:10189000F5CF222009F442CEB60180E290E00E940A
:1018A000760C2A94F6CFF6018681978102C08FEFDD
:1018B0009FEF2B96E2E10C944E0D9927882708950F
:1018C000FC010590615070400110D8F7809590950B
:1018D0008E0F9F1F0895FC01615070400190011010
:1018E000D8F7809590958E0F9F1F08950F931F93A3
:1018F000CF93DF93FB01238121FD03C08FEF9FEF87
:101900002CC022FF16C046815781248135814217A1
:10191000530744F4A081B1819D012F5F3F4F318374
:1019200020838C93268137812F5F3F4F3783268317
:1019300014C08B01EC01FB010084F185E02D0995B9
:10194000892BE1F6D80116968D919C9117970196F7
:1019500017969C938E931697CE01DF91CF911F918E
:101960000F910895FA01AA27283051F1203181F111
:10197000E8946F936E7F6E5F7F4F8F4F9F4FAF4F97
:10198000B1E03ED0B4E03CD0670F781F891F9A1FAA
:10199000A11D680F791F8A1F911DA11D6A0F711D5E
:1019A000811D911DA11D20D009F468943F912AE06A
:1019B000269F11243019305D3193DEF6CF01089552
:1019C000462F4770405D4193B3E00FD0C9F7F6CF83
:1019D000462F4F70405D4A3318F0495D31FD40524B
:1019E000419302D0A9F7EACFB4E0A69597958795E1
:1019F00077956795BA95C9F70097610571050895C0
:101A00009B01AC010A2E069457954795379527956B
:101A1000BA95C9F7620F731F841F951FA01D089503
:101A2000A1E21A2EAA1BBB1BFD010DC0AA1FBB1FE2
:101A3000EE1FFF1FA217B307E407F50720F0A21B54
:101A4000B30BE40BF50B661F771F881F991F1A94C1
:101A500069F760957095809590959B01AC01BD01EB
:101A6000CF0108952F923F924F925F926F927F9293
:101A70008F929F92AF92BF92CF92DF92EF92FF929E
:101A80000F931F93CF93DF93CDB7DEB7CA1BDB0B4A
:101A90000FB6F894DEBF0FBECDBF09942A883988EF
:101AA00048885F846E847D848C849B84AA84B984F6
:101AB000C884DF80EE80FD800C811B81AA81B98102
:101AC000CE0FD11D0FB6F894DEBF0FBECDBFED0116
:101AD0000895EE0FFF1F0590F491E02D0994F894FE
:021AE000FFCF36
:101AE200FF00000000000000000000F40100000000
:101AF20000000000000000000008010208080101C7
:101B0200090808020908080808030303030303037A
:101B12000303030303030303030303030303030393
:101B22000303030303030303030303030303030383
:101B3200030303030303030303020202020202027A
:101B42000202020303030303030301010101010172
:101B52000101010101010101010101010101010173
:101B62000101010103030303030301010101010157
:101B72000101010101010101010101010101010153
:101B8200010101010303030303030303030303032B
:101B92000303030303030303030303030303030313
:101BA2000303030303030303030303030303030303
:101BB20003030303030303030303030303030303F3
:101BC20003030303030303030303030303030303E3
:101BD20003030303030303030303030303030303D3
:101BE20003030303030303030303030303030303C3
:101BF20003030303030303030303030303030303B3
:101C0200030303030303030303000000002A02F695
:101C120002E202A602C6029B026F6603006F6E0218
:101C2200016C650302726503056772050664310380
:101C32000D7365030A626C050B6C65040C73740604
:101C42001568650416766507FE7267020E666F7583
:101C52006E643A5B25735D5B25695D004E6F74208F
:101C6200666F756E643A5B25735D004375725072E0
:101C720065436861725B25645D5B25645D5B25631A
:101C82005D0061737369676E20637572656E74734C
:101C92007461746520746F20310042616420496E62
:101CA20070757400436D64206275662061646465BA
:101CB20064206E756D3A2000576520686176652054
:101CC2006120636D64206275666665723A20005019
:101CD200726F6365737320436F6D6D616E645B2514
:101CE200695D0050726F6772616D2056657273692B
:101CF2006F6E20312E3000496E2064313300496E00
:101D0200204C454400496E2053657400417267328D
:101D12003A2073686F756C6420626520776F726415
:101D220000496E74657276616C2069732073657404
:101D32003A2000496E20537461747573004C454417
:101D4200733A205265645B25645D2C204772656599
:101D52006E5B25645D00446F6E6520776974682050
:0A1D620070726F6365737320000058
:00000001FF
