:100000000C943A030C9462030C9462030C94620304
:100010000C9462030C9462030C9462030C946203CC
:100020000C9462030C9462030C9462030C946203BC
:100030000C9462030C9462030C9462030C946203AC
:100040000C942D060C9462030C94F3050C94B805E3
:100050000C9462030C9462030C9462030C9462038C
:100060000C9462030C9462034572726F722C2074BC
:100070006F6F206D616E7920636F6D6D616E64735B
:1000800000000000002300260029000000000700F7
:100090000201000003040600000000000000004E02
:1000A0006F7420766961626C6520636F6D6D616E3F
:1000B00064730042616420706172616D6574657281
:1000C00020666F72207374617475730042616420DE
:1000D000706172616D6574657220666F7220534540
:1000E000540042616420706172616D6574657220B4
:1000F000666F7220696E74657276616C00496E7409
:10010000657276616C206973207365743A200045CE
:1001100072726F722C2064656C61792063616E6EFF
:100120006F74206578636565642031303030306DE0
:10013000730042616420706172616D657465722044
:10014000666F72204C4544004261642070617261A8
:100150006D6574657220666F7220443133002A2AFF
:100160002A2A2A2A2A2A2A2A2A2A2A2A2A2A2A2AEF
:100170002A2A2A2A2A2A2A2A2A2A2A2A2A2A2A2ADF
:100180002A2A2A2A2A2A2A2A2A2A2A2A2A2A2A2ACF
:100190002A2A2A2A2A2A2A2A2A2A002A2048454C98
:1001A00050202020205B636D645D202020202020D3
:1001B00020202020202020202D20646973706C6175
:1001C00079732068656C70206D656E752020202025
:1001D0002020202020202A002A2056455253494F13
:1001E0004E205B636D645D20202020202020202095
:1001F000202020202D2063757272656E742070722D
:100200006F6772616D2076657273696F6E20202052
:100210002020202A002A2020204C45445320202042
:10022000202020205B617267315D2020202020206B
:10023000202D20696E666F726D6174696F6E20612A
:10024000626F7574204C45447320202020202020AC
:100250002A002A2053544154555320205B636D6477
:100260005D202020202020202020202020202D2044
:10027000737461747573206D656E75202020202065
:10028000202020202020202020202020202A002A7A
:100290002020202020202035303020202020202029
:1002A000202020205B617267325D202D20636F6EFD
:1002B000666967757261626C652076616C75652030
:1002C000666F722064656C6179202A002A202020E4
:1002D000424C494E4B2020202020205B6172673128
:1002E0005D202020202020202D2064656661756C13
:1002F0007420353030206D732020202020202020D5
:10030000202020202020202A002A2053455420206D
:100310002020205B636D645D202020202020202091
:1003200020202020202D207365747320626C696E5C
:100330006B20696E74657276616C2020202020200D
:10034000202020202A002A20202020202020524760
:1003500020202020202020202020205B6172673276
:100360005D202D20722D6720626C696E6B696E674F
:1003700020666F72206475616C204C4544202020FB
:10038000202A002A202020424C494E4B20202020A9
:1003900020205B617267315D202020202020202DED
:1003A0002064656661756C7420353030206D732073
:1003B00020202020202020202020202020202A0053
:1003C0002A2020204F464620202020202020205B6D
:1003D000617267315D202020202020202D2074753F
:1003E000726E73206C65642070696E73206F666630
:1003F00020202020202020202020202A002A202009
:100400002052454420202020202020205B6172675C
:10041000315D202020202020202D207475726E73E5
:1004200020726564204C4544206F6E2F6F666620F5
:1004300020202020202020202A002A20202047526F
:1004400045454E2020202020205B617267315D20D1
:100450002020202020202D207475726E732067725A
:1004600065656E204C4544206F6E2F6F66662020B8
:1004700020202020202A002A204C45442020202013
:10048000205B636D645D2020202020202020202020
:100490002020202D20616363657373206475616C77
:1004A000204C45442070696E73202020202020209D
:1004B00020202A002A2020204F46462020202020CD
:1004C0002020205B617267315D20202020202020C9
:1004D0002D207475726E73206469676974616C2075
:1004E00070696E206F666620202020202020202A40
:1004F000002A2020204F4E202020202020202020B5
:100500005B617267315D202020202020202D207427
:1005100075726E73206469676974616C2070696EAE
:10052000206F6E2020202020202020202A002A203A
:1005300044313320202020205B636D645D20202027
:10054000202020202020202020202D206163636592
:100550007373206469676974616C2070696E2031FF
:100560003320202020202020202A002A2A2A2A2A5C
:100570002A2A2A2A2A2A2A2A2A2A2A2A2A2A2A2ADB
:100580002A2A2A2A2A2A2A2A2A2A2A2A2A2A2A2ACB
:100590002A2A2A2A2A2A2A2A2A2A2A2A2A2A2A2ABB
:1005A0002A2A2A2A2A2A2A002A20537570706F7252
:1005B00074656420434D4473205B636D645D5B61CF
:1005C0007267315D5B617267325D202D20636F6DF4
:1005D0006D616E642073657175656E6365202020A2
:1005E0002020202A002A2A2A2A2A2A2A2A2A2A2AB3
:1005F0002A2A2A2A2A2A2A2A2A2A2A2A2A2A2A2A5B
:100600002A2A2A2A2A2A2A2A2A2A2A2A2A2A2A2A4A
:100610002A2A2A2A2A2A2A2A2A2A2A2A2A2A2A2A3A
:100620002A0050726F6772616D2056657273696F30
:100630006E20312E300000000000250028002B0025
:1006400000000000240027002A000404040404041D
:100650000404020202020202030303030303010271
:100660000408102040800102040810200102040840
:100670001020770611241FBECFEFD8E0DEBFCDBF1C
:1006800012E0A0E0B1E0EAECFCE102C005900D92BE
:10069000A63CB107D9F723E0A6ECB2E001C01D9259
:1006A000A03FB207E1F713E0CAE3D3E004C021970B
:1006B000FE010E945D0EC933D107C9F70E94B20640
:1006C0000C942A0B0C94000090E0FC01E25AF94FC4
:1006D0002491FC01E65BF94F8491882399F090E026
:1006E000880F991FFC01E05CF94FA591B491FC01C2
:1006F000EA5CF94F859194918FB7F894EC91E22BD5
:10070000EC938FBF089508950F931F93CF93DF93BA
:10071000FC01A685B7858D01005C1F4FE80188812B
:10072000998101968F739927AD014E5B5F4FEA0166
:100730002881398128173907D1F3E80128813981C7
:10074000A20FB31F6C93A685B785A05CBF4F11960F
:100750009C938E93A689B7892C9181E090E0078CB9
:1007600002C0880F991F0A94E2F7822B8C9381E0D4
:1007700081A30488F589E02D80818064808381E0F5
:1007800090E0DF91CF911F910F910895CF93DF9368
:100790006DE08EEC93E00E948403EC016AE08EEC45
:1007A00093E00E9484038C0F9D1FDF91CF910895E9
:1007B0000F931F93CF93DF9300E010E0FC0164914F
:1007C000EC012196662341F08EEC93E00E948403B5
:1007D000080F191FCE01F2CFC801DF91CF911F91F1
:1007E0000F910895CF93DF930E94D803EC010E94EC
:1007F000C6038C0F9D1FDF91CF910895FC0181A14D
:10080000882329F0A489B5898C9186FFFBCF11A29A
:100810000895FC01A485B585FD01E05CFF4F2081B2
:1008200031813296808191812817390779F0808152
:100830009181A80FB91F8C91208131812F5F3F4F8B
:100840002F7333273183208390E008958FEF9FEF3C
:100850000895DC011C96ED91FC911D97DF01A05CD1
:10086000BF4F2D913C91119712968D919C911197AC
:100870002817390739F08D919C91E80FF91F808175
:1008800090E008958FEF9FEF0895FC012485358552
:10089000F901E05CFF4F80819181329620813181A6
:1008A000821B930B8F73992708958EEC93E00C9421
:1008B0004504CF92DF92EF92FF920F931F93CF9355
:1008C000DF936C01EB017B01E40EF51E00E010E00C
:1008D000CE15DF0561F06991D601ED91FC91019093
:1008E000F081E02DC6010995080F191FF1CFC8014D
:1008F000DF91CF911F910F91FF90EF90DF90CF90FC
:100900000895833081F028F4813099F08230A1F08D
:1009100008958630A9F08730B9F08430D1F4809101
:1009200080008F7D03C0809180008F77809380004E
:10093000089584B58F7702C084B58F7D84BD0895F6
:100940008091B0008F7703C08091B0008F7D80933D
:10095000B0000895CF93DF93282F30E0F901E557D9
:10096000FF4F8491F901E25AF94FD491F901E65B06
:10097000F94FC491CC2391F081110E948104EC2F96
:10098000F0E0EE0FFF1FEF57FF4FA591B491EC91F0
:10099000ED2381E090E021F480E002C080E090E06F
:1009A000DF91CF9108951F93CF93DF93282F30E0ED
:1009B000F901E557FF4F8491F901E25AF94FD491BB
:1009C000F901E65BF94FC491CC23C1F0162F8111D8
:1009D0000E948104EC2FF0E0EE0FFF1FEA5CF94F5C
:1009E000A591B4919FB7F894111104C08C91D09542
:1009F000D82302C0EC91DE2BDC939FBFDF91CF9117
:100A00001F91089590911E01E92F092E000CFF0BF4
:100A1000E050FF4F80839F5F90931E019E3124F032
:100A200088E690E00C94F2030895EDEBF3E020816A
:100A30003181D901A354BC4F12968C932F5F3F4F45
:100A4000318320830895009769F0FC010190002014
:100A5000E9F73197AF01481B590BBC018EEC93E0CD
:100A60000C94590480E090E00895CF92DF92EF92C9
:100A7000FF920F931F93CF93DF93CDB7DEB7E2972B
:100A80000FB6F894DEBF0FBECDBF8C01E090BF0360
:100A9000CE2C0E2C000CDD08C6010E942D0B892BDC
:100AA00021F0C6010E94380BE82EF090C003CF2C35
:100AB0000F2C000CDD08C6010E942D0B892B21F0A4
:100AC000C6010E94380BF82EE4E6F2E020E030E0A8
:100AD0008E2DEE0C990B4F2DFF0C550B608170E0A5
:100AE0006817790799F4618170E06417750771F4EC
:100AF000628170E06017710749F4220F331F220FE3
:100B0000331FF901EC59FD4F838123C02F5F3F4F05
:100B100034962D30310511F78FEB93E09F938F932F
:100B200088E992E09F938F931F9282E38F938E01C7
:100B30000F5F1F4F1F930F930E94400BC8010E942D
:100B400023050E94C6030FB6F894DEBF0FBECDBFCB
:100B500084E1E2960FB6F894DEBF0FBECDBFDF9101
:100B6000CF911F910F91FF90EF90DF90CF9008955C
:100B70001F920F920FB60F9211242F933F938F93D2
:100B80009F93EF93FF9320917503309176038091AB
:100B90007703909178032817390731F48091C100C9
:100BA0008F7D8093C10014C0E0917703F0917803AA
:100BB000EB5CFC4F20818091770390917803019644
:100BC0008F73992790937803809377032093C600BF
:100BD000FF91EF919F918F913F912F910F900FBEB9
:100BE0000F901F9018951F920F920FB60F9211241D
:100BF0002F934F935F938F939F93EF93FF938091E6
:100C0000C00082FD1CC02091C6008091B903909164
:100C1000BA034091BB035091BC0301968F7399278F
:100C20004817590771F0E091B903F091BA03E758FA
:100C3000FC4F20839093BA038093B90302C0809144
:100C4000C600FF91EF919F918F915F914F912F91EE
:100C50000F900FBE0F901F9018951F920F920FB616
:100C60000F9211242F933F938F939F93AF93BF9332
:100C70008091310390913203A0913303B0913403FA
:100C80003091CA0223E0230F2D3720F40196A11DD5
:100C9000B11D05C026E8230F0296A11DB11D2093AA
:100CA000CA028093310390933203A0933303B0932D
:100CB00034038091C6029091C702A091C802B091FE
:100CC000C9020196A11DB11D8093C6029093C7026F
:100CD000A093C802B093C902BF91AF919F918F9129
:100CE0003F912F910F900FBE0F901F901895EEEC33
:100CF000F3E01382128288EE93E0A0E0B0E08483F8
:100D00009583A683B78388E592E09183808389E702
:100D100093E09587848785E393E09787868785ECC2
:100D200090E0918B808B84EC90E0938B828B80ECB5
:100D300090E0958B848B81EC90E0978B868B82EC96
:100D400090E0918F808F86EC90E0938F828F84E08B
:100D5000848F83E0858F87E0868F85E0878F81E0B1
:100D600080A30895CF93DF93CDB7DEB7E2970FB698
:100D7000F894DEBF0FBECDBF789484B5826084BD89
:100D800084B5816084BD85B5826085BD85B581608F
:100D900085BD80916E00816080936E00109281000D
:100DA00080918100826080938100809181008160C8
:100DB0008093810080918000816080938000809189
:100DC000B10084608093B1008091B0008160809315
:100DD000B00080917A00846080937A0080917A00DC
:100DE000826080937A0080917A00816080937A009B
:100DF00080917A00806880937A001092C100E0911F
:100E0000E203F091E30381E090E09C010090EE03A7
:100E100002C0220F331F0A94E2F72083E091DE0321
:100E2000F091DF031082E091E003F091E10327E607
:100E300020831092EF03E091E403F091E5034081F9
:100E40009C010090EA0302C0220F331F0A94E2F7CC
:100E5000242B2083E091E403F091E50340819C0181
:100E60000090EB0302C0220F331F0A94E2F7242BF9
:100E70002083E091E403F091E50340819C01009020
:100E8000EC0302C0220F331F0A94E2F7242B2083C5
:100E9000E091E403F091E50320810090ED0302C0AE
:100EA000880F991F0A94E2F78095822380838DE052
:100EB0000E94640385E00E94640386E00E9464034C
:100EC000CE0101966C015EE1252E51E0352E69EAD6
:100ED000862E62E0962E01E010E08EEC93E00E94F8
:100EE00009047C019FEFE916F90609F49BC0E98229
:100EF00041E050E0B6018EEC93E00E945904E0918D
:100F00003003F8E0EF16F10421F08FE7E816F10462
:100F1000B1F4EE2309F486C0E150E093300389E098
:100F2000EBE3F1E0D60101900D928A95E1F749E0FB
:100F300050E0B6018EEC93E00E94590473C09DE02E
:100F4000E916F10421F0FAE0EF16F10491F4F0E073
:100F5000E553FD4F1082109230038BE1898384E4C6
:100F60008A8342E050E0B6018EEC93E00E9459047F
:100F70003CC181E08E0F80933003F0E0E553FD4FDC
:100F8000E082843608F44EC0E82FF0E0E553FD4FD0
:100F900010821092300329C1283009F02EC1009729
:100FA00009F00197AF014B5C524021912111F4CF20
:100FB000FC01E553FD4F1082E0E0F1E08FEF8193FB
:100FC0002E163F06D9F710921E011092BE03109202
:100FD000BD031092CD031092CC03A12CB12CF301D0
:100FE00081913F01882309F461C1282F082E000C4C
:100FF000330BF901EC5AFE4FE0800E2C000CFF0879
:10100000F501EE0FFF1FEE0FFF1FEC5BFE4FEE0D25
:10101000FF1D9081923009F40CC10CF4FAC0983095
:1010200009F0FBC08091250190912601892BC9F11F
:101030008FB7F8944090310350903203609033039F
:10104000709034038FBF80912F0190913001A09157
:101050003101B0913201B301A201481B590B6A0B57
:101060007B0B80912B0190912C01A0912D01B091CF
:101070002E01481759076A077B0798F08DE00E94F8
:10108000AA04892B11F060E001C061E08DE00E94AC
:10109000D30440922F01509230016092310170923E
:1010A00032018091270190912801892B09F49AC07F
:1010B0008091290190912A01892B09F443C08FB7AF
:1010C000F894409031035090320360903303709055
:1010D00034038FBF8091370190913801A09139017D
:1010E000B0913A01B301A201481B590B6A0B7B0B6B
:1010F00080912B0190912C01A0912D01B0912E0196
:10110000481759076A077B0708F46CC085E00E94FE
:10111000AA0460E0892B31F085E00E94D30461E0ED
:1011200086E005C086E00E94D30461E085E00E946D
:10113000D304409237015092380160923901709285
:101140003A0150C08FB7F894409031035090320369
:1011500060903303709034038FBF8091330190917E
:101160003401A0913501B0913601B301A201481BB1
:10117000590B6A0B7B0B80912B0190912C01A09154
:101180002D01B0912E01481759076A077B0750F1CE
:10119000809123019091240160E0892B69F486E01D
:1011A0000E94D30485E00E94AA04892B11F060E01C
:1011B00001C061E085E00CC085E00E94D30486E0B8
:1011C0000E94AA04892B11F060E001C061E086E072
:1011D0000E94D30440923301509234016092350151
:1011E000709236010E94550478CE8BEC682E82E016
:1011F000782EF30180E090E0D5CE2F3709F4CFCEE2
:101200008417950721F0DC01A553BD4F2C9301965F
:10121000C9CE913029F05701E2CE9930F9F0FBCFD9
:101220000E941505AA94AB28B1F7EE24E394F12CA3
:10123000F2CF6091CC037091CD039AE0969FA0010C
:10124000979F500D112420533109240F351F3093DF
:10125000CD032093CC030E941505DDCFE2E0AE164E
:10126000B10451F483E10E9402058091CD030E94F4
:1012700002058091CC030DC080E00E94150580918D
:10128000BD039091BE0301970E943505843109F496
:10129000C9CE0E9402051092BE031092BD031092A7
:1012A000CD031092CC03E12CF12CB5CF8091BD037E
:1012B0009091BE03892BE9F0F2E0AF16B10451F42E
:1012C00083E10E9402058091CD030E940205809176
:1012D000CC030DC080E00E9415058091BD03909164
:1012E000BE0301970E943505843109F49BCE0E940C
:1012F00002058FEF0E940205E0E0F1E07F018FEF31
:10130000E81AF80A80818F3F09F48CCE8D3009F4F9
:1013100062C038F4823009F48EC08A3009F404C106
:101320008FC1863149F08E3F21F0853109F088C1A7
:1013300056C182E296E086C185EE95E00E94F203F6
:1013400088EA95E00E94F2038BE695E00E94F203A2
:101350008EE295E00E94F20381EF94E00E94F20396
:1013600084EB94E00E94F20387E794E00E94F2038A
:101370008AE394E00E94F2038DEF93E00E94F2036F
:1013800080EC93E00E94F20383E893E00E94F20372
:1013900086E493E00E94F20389E093E00E94F20366
:1013A0008CEC92E00E94F2038FE892E00E94F2033C
:1013B00082E592E00E94F20385E192E00E94F2034E
:1013C00088ED91E00E94F2038BE991E00E94F20324
:1013D0008EE591E037C17F0192E0E90EF11C818139
:1013E000823028F08B30B9F088E491E0F5C081308C
:1013F00029F050F08B3079F0F70180CF1092260160
:101400001092250161E005C010922601109225017D
:1014100060E08DE086C08091250190912601892BA6
:1014200029F01092260110922501E6CF1093260193
:1014300000932501E1CF7F0182E0E80EF11C81815C
:10144000873030F48530B0F4882309F454C00FC0DD
:101450008B3069F482818E3009F0F7C010932A0135
:10146000009329017F0193E0E90EF11CEEC082E3B5
:1014700091E0B2C0853029F0863001F18111BCCFF6
:101480003AC0109228011092270110922A0110925E
:101490002901109222011092210160E086E00E9451
:1014A000D3041093200100931F0161E085E00E94A6
:1014B000D30410922401109223019ECF1092280190
:1014C0001092270110922A011092290110922001F6
:1014D00010921F0160E085E00E94D3041093220166
:1014E0000093210161E086E00E94D304109324015F
:1014F0000093230181CF10922801109227011092AE
:101500002A01109229011092200110921F0160E01F
:1015100085E00E94D304109222011092210160E024
:1015200086E00E94D30468CF81818B3009F052C0DD
:101530008281833109F04BC07F0185E0E80EF11C08
:1015400043805480542445245424052C000C660800
:10155000770840922B0150922C0160922D017092DD
:101560002E0191E1491697E259066104710418F0C1
:101570008FE091E031C08DEF90E00E94D80319A276
:101580005E01E1E2AE0EB11CC301B2012AE030E01F
:1015900040E050E00E94040E842DFAE02F9F801955
:1015A000112491E0A91AB1088A3014F4805D01C0B9
:1015B000895CF501808329013A01232B242B252BFB
:1015C00019F7C5010E9423050E94C60315CF82EEBC
:1015D00090E002C08CEC90E00E94F20323CD7F01EA
:1015E00082E0E80EF11C81818C3039F586E00E94A2
:1015F000AA04782E692E85E00E94AA04B82EA92E8E
:101600008DE00E94AA046F927F92AF92BF929F9347
:101610008F939F928F921F9292E39F93DF92CF922C
:101620000E94400BC6010E9423050E94C6030FB60C
:10163000F894DEBF0FBECDBFDFCE83EB90E0CCCF02
:101640008FE990E00E94F203D7CE10932801009317
:101650002701D2CEF8940C94630E85FD0C94510DA5
:10166000806291110C94510D81568A51D8F70895DA
:101670009111089581548A5108F4805E855A089525
:10168000AEE0B0E0E6E4FBE00C94340E0D891E8978
:101690008F89988D26E02C831A83098397FF02C0D7
:1016A00080E090E801979E838D83AE01455E5F4F99
:1016B000698D7A8DCE0101960E94700B4D815E81FD
:1016C00057FD0AC02F813885421753070CF49A0141
:1016D000F801E20FF31F10822E96E4E00C94500EF6
:1016E000ABE0B0E0E6E7FBE00C94260E6C017B017A
:1016F0008A01FC0117821682838181FFCCC1CE0151
:1017000001963C01F6019381F70193FD859193FFCA
:1017100081917F01882309F4BAC1853239F493FDA0
:10172000859193FF81917F01853229F4B60190E084
:101730000E946A0DE7CF912C212C312CFFE1F3158B
:10174000D8F08B3279F038F4803279F08332A1F41A
:10175000232D20611DC08D3261F0803369F4232D6B
:10176000216016C0832D8260382EE32DE4603E2E6A
:101770002AC0F32DF8601DC037FC2DC020ED280FC6
:101780002A3040F08E32B9F436FC81C1232D20641A
:10179000322E19C036FE06C08AE0989E200D112414
:1017A000922E11C0EAE02E9E200D1124222EF32D40
:1017B000F0623F2E08C08C3621F4832D8068382ECD
:1017C00002C0883641F4F70193FD859193FF819122
:1017D0007F018111B3CF982F9F7D9554933028F4CA
:1017E0000C5F1F4F9FE399830DC0833631F0833721
:1017F00071F0833509F059C021C0F80180818983D7
:101800000E5F1F4F88248394912C530113C028012D
:10181000F2E04F0E511CF801A080B18036FE03C0EB
:10182000692D70E002C06FEF7FEFC5010E945F0D70
:101830004C018201F32DFF773F2E16C0280122E0D4
:10184000420E511CF801A080B18036FE03C0692D04
:1018500070E002C06FEF7FEFC5010E94540D4C0194
:10186000F32DF0683F2E820133FC1BC0822D90E0E7
:1018700088169906B0F4B60180E290E00E946A0DE5
:101880002A94F4CFF50137FC859137FE81915F01F1
:10189000B60190E00E946A0D21102A9421E0821A7C
:1018A00091088114910471F7E8C0843611F08936EB
:1018B00041F5F80137FE07C0608171818281938113
:1018C0000C5F1F4F08C060817181072E000C880BD0
:1018D000990B0E5F1F4FF32DFF763F2E97FF09C028
:1018E00090958095709561957F4F8F4F9F4FF068D1
:1018F0003F2E2AE030E0A3010E94A60D882E861814
:1019000045C0853731F4232D2F7EB22E2AE030E0FA
:1019100025C0932D997FB92E8F36C1F018F48835E4
:1019200079F0B5C0803719F0883721F0B0C0E92FC1
:10193000E061BE2EB4FE0DC0FB2DF460BF2E09C0C9
:1019400034FE0AC0292F2660B22E06C028E030E0FF
:1019500005C020E130E002C020E132E0F801B7FE2E
:1019600007C060817181828193810C5F1F4F06C027
:101970006081718180E090E00E5F1F4FA3010E94A3
:10198000A60D882E8618FB2DFF773F2E36FE0DC044
:10199000232D2E7FA22E891458F434FE0BC032FC66
:1019A00009C0832D8E7EA82E05C0B82CA32C03C0A1
:1019B000B82C01C0B92CA4FE0FC0FE01E80DF11D2A
:1019C0008081803321F49A2D997EA92E09C0A2FE30
:1019D00006C0B394B39404C08A2D867809F0B394FA
:1019E000A3FC11C0A0FE06C0B21488F4280C922CEF
:1019F0009B180EC0B21460F4B60180E290E00E9421
:101A00006A0DB394F7CFB21418F42B1802C0982CB7
:101A1000212CA4FE10C0B60180E390E00E946A0D64
:101A2000A2FE17C0A1FC03C088E790E002C088E5D1
:101A300090E0B6010CC08A2D867859F0A1FE02C054
:101A40008BE201C080E2A7FC8DE2B60190E00E942B
:101A50006A0D891438F4B60180E390E00E946A0DA3
:101A60009A94F7CF8A94F301E80DF11D8081B601B5
:101A700090E00E946A0D8110F5CF222009F442CE39
:101A8000B60180E290E00E946A0D2A94F6CFF6013A
:101A90008681978102C08FEF9FEF2B96E2E10C9435
:101AA000420E992788270895FC01059061507040E7
:101AB0000110D8F7809590958E0F9F1F0895FC0117
:101AC0006150704001900110D8F7809590958E0F6D
:101AD0009F1F08950F931F93CF93DF93FB012381E3
:101AE00021FD03C08FEF9FEF2CC022FF16C046815F
:101AF0005781248135814217530744F4A081B18175
:101B00009D012F5F3F4F318320838C932681378146
:101B10002F5F3F4F3783268314C08B01EC01FB01FD
:101B20000084F185E02D0995892BE1F6D801169600
:101B30008D919C911797019617969C938E9316976B
:101B4000CE01DF91CF911F910F910895FA01AA273D
:101B5000283051F1203181F1E8946F936E7F6E5FF0
:101B60007F4F8F4F9F4FAF4FB1E03ED0B4E03CD09E
:101B7000670F781F891F9A1FA11D680F791F8A1F81
:101B8000911DA11D6A0F711D811D911DA11D20D0E8
:101B900009F468943F912AE0269F11243019305DA2
:101BA0003193DEF6CF010895462F4770405D419393
:101BB000B3E00FD0C9F7F6CF462F4F70405D4A33E0
:101BC00018F0495D31FD4052419302D0A9F7EACFA8
:101BD000B4E0A6959795879577956795BA95C9F7D7
:101BE00000976105710508959B01AC010A2E0694CA
:101BF0005795479537952795BA95C9F7620F731F83
:101C0000841F951FA01D0895A1E21A2EAA1BBB1BBD
:101C1000FD010DC0AA1FBB1FEE1FFF1FA217B307B8
:101C2000E407F50720F0A21BB30BE40BF50B661FCE
:101C3000771F881F991F1A9469F760957095809592
:101C400090959B01AC01BD01CF0108952F923F9269
:101C50004F925F926F927F928F929F92AF92BF92BC
:101C6000CF92DF92EF92FF920F931F93CF93DF9368
:101C7000CDB7DEB7CA1BDB0B0FB6F894DEBF0FBEC5
:101C8000CDBF09942A88398848885F846E847D8412
:101C90008C849B84AA84B984C884DF80EE80FD8014
:101CA0000C811B81AA81B981CE0FD11D0FB6F8948A
:101CB000DEBF0FBECDBFED010895EE0FFF1F0590F3
:0A1CC000F491E02D0994F894FFCF91
:101CCA00FF0000000000000000000000000000000B
:101CDA0000000000000000000000000000000000FA
:101CEA000000000000000000000000F401000000F5
:101CFA0000000000000000000000001B5B314420CF
:101D0A001B5B31440801020808010109080802099D
:101D1A000808080803030303030303030303030375
:101D2A000303030303030303030303030303030379
:101D3A000303030303030303030303030303030369
:101D4A000303030302020202020202020202030363
:101D5A00030303030301010101010101010101015F
:101D6A000101010101010101010101010101010357
:101D7A00030303030301010101010101010101013F
:101D8A000101010101010101010101010101010337
:101D9A000303030303030303030303030303030309
:101DAA0003030303030303030303030303030303F9
:101DBA0003030303030303030303030303030303E9
:101DCA0003030303030303030303030303030303D9
:101DDA0003030303030303030303030303030303C9
:101DEA0003030303030303030303030303030303B9
:101DFA0003030303030303030303030303030303A9
:101E0A000303030303030303030303030303030398
:101E1A000303030300000000840359044504090472
:101E2A002904FE036F6603006F6E02016C650302EC
:101E3A0072650305677205066431030D7365030A4B
:101E4A00626C050B6C65040C7374061568650416E0
:101E5A00766507FE7267020E42616420436F6D6DFC
:101E6A00616E643A5B25735D006431335B25645DA2
:101E7A002C205265645B25645D2C20477265656E73
:061E8A005B25645D000011
:00000001FF
