:100000000C94FB010C9423020C9423020C94230205
:100010000C9423020C9423020C9423020C942302CC
:100020000C9423020C9423020C9423020C942302BC
:100030000C9423020C9423020C9423020C942302AC
:100040000C94EC040C9423020C94B2040C947704EA
:100050000C9423020C9423020C9423020C9423028C
:100060000C9423020C9423020000000023002600BD
:100070002900000000070002010000030406000040
:100080000000000000002A2A2A2A2A2A2A2A2A2ACC
:100090002A2A2A2A2A2A2A2A2A2A2A2A2A2A2A2AC0
:1000A0002A2A2A2A2A2A2A2A2A2A2A2A2A2A2A2AB0
:1000B000002A2048454C502020202020202D20645C
:1000C0006973706C6179732068656C70206D656E02
:1000D000752020202020202020202A002A2056457C
:1000E0005253494F4E2020202D2063757272656E49
:1000F000742070726F6772616D2076657273696FBC
:100100006E202020202A002A2020204C4544532005
:100110002020202D20696E666F726D6174696F6E8C
:100120002061626F7574204C45447320202020208C
:100130002A002A20535441545553202020202D209A
:10014000737461747573206D656E75202020202096
:1001500020202020202020202020202A002A2020AB
:1001600020424C494E4B2020202D2064656661754D
:100170006C7420353030206D73202020202020200A
:100180002020202020202A002A20534554202020EF
:10019000202020202D207365747320626C696E6BA3
:1001A00020696E74657276616C20202020202020EA
:1001B000202A002A20202020205247202020202DE5
:1001C00020722D6720626C696E6B696E6720666FA6
:1001D00072206475616C204C454420202A002A203E
:1001E0002020424C494E4B2020202D206465666122
:1001F000756C7420353030206D7320202020202035
:10020000202020202020202A002A2020204F46467F
:1002100020202020202D207475726E73206C656460
:100220002070696E73206F666620202020202020B9
:1002300020202A002A20202052454420202020204F
:100240002D207475726E7320726564204C454420B5
:100250006F6E2F6F6666202020202020202A002A23
:10026000202020475245454E2020202D20747572B5
:100270006E7320677265656E204C4544206F6E2F4B
:100280006F666620202020202A002A204C4544202A
:100290002020202020202D2061636365737320645B
:1002A00075616C204C45442070696E7320202020BD
:1002B0002020202A002A2020204F464620202020CF
:1002C000202D207475726E73206469676974616C87
:1002D0002070696E206F66662020202020202A0072
:1002E0002A2020204F4E2020202020202D207475F1
:1002F000726E73206469676974616C2070696E2026
:100300006F6E202020202020202A002A2044313314
:10031000202020202020202D20616363657373201E
:100320006469676974616C2070696E2031332020C4
:10033000202020202A002A2A2A2A2A2A2A2A2A2A6F
:100340002A2A2A2A2A2A2A2A2A2A2A2A2A2A2A2A0D
:100350002A2A2A2A2A2A2A2A2A2A2A2A2A2A2A2AFD
:10036000002A20202020202020202020202053751B
:1003700070706F7274656420434D44732020202098
:10038000202020202020202020202A002A2A2A2A5B
:100390002A2A2A2A2A2A2A2A2A2A2A2A2A2A2A2ABD
:1003A0002A2A2A2A2A2A2A2A2A2A2A2A2A2A2A2AAD
:1003B0002A2A2A2A2A2A0000000000250028002BC9
:1003C0000000000000240027002A000404040404A4
:1003D00004040402020202020203030303030301F2
:1003E00002040810204080010204081020010204C9
:1003F00008102000360511241FBECFEFD8E0DEBF65
:10040000CDBF13E0A0E0B1E0EEECF9E102C0059051
:100410000D92AA36B107D9F724E0AAE6B3E001C0ED
:100420001D92A439B207E1F711E0CBEFD1E004C08F
:100430002197FE010E94DF0CCA3FD107C9F70E9435
:1004400071050C94AC090C94000090E0FC01E152A1
:10045000FC4F2491FC01E553FC4F8491882399F0D3
:1004600090E0880F991FFC01EF53FC4FA591B491C8
:10047000FC01E954FC4F859194918FB7F894EC916D
:10048000E22BEC938FBF089508950F931F93CF93A2
:10049000DF93FC01A685B7858D01005C1F4FE80145
:1004A0008881998101968F739927AD014E5B5F4FCB
:1004B000EA012881398128173907D1F3E801288119
:1004C0003981A20FB31F6C93A685B785A05CBF4F7F
:1004D00011969C938E93A689B7892C9181E090E028
:1004E000078C02C0880F991F0A94E2F7822B8C9325
:1004F00081E081A30488F589E02D80818064808378
:1005000081E090E0DF91CF911F910F910895CF93FB
:10051000DF936DE082E794E00E944502EC016AE01F
:1005200082E794E00E9445028C0F9D1FDF91CF91DE
:1005300008950F931F93CF93DF9300E010E0FC0129
:100540006491EC012196662341F082E794E00E94D9
:100550004502080F191FCE01F2CF0E948702800FBB
:10056000911FDF91CF911F910F910895FC0181A1FF
:10057000882329F0A489B5898C9186FFFBCF11A22D
:100580000895FC01A485B585FD01E05CFF4F208145
:1005900031813296808191812817390779F08081E5
:1005A0009181A80FB91F8C91208131812F5F3F4F1E
:1005B0002F7333273183208390E008958FEF9FEFCF
:1005C0000895DC011C96ED91FC911D97DF01A05C64
:1005D000BF4F2D913C91119712968D919C9111973F
:1005E0002817390739F08D919C91E80FF91F808108
:1005F00090E008958FEF9FEF0895FC0124853585E5
:10060000F901E05CFF4F8081918132962081318138
:10061000821B930B8F739927089582E794E00C94C3
:10062000FD02CF92DF92EF92FF920F931F93CF9331
:10063000DF936C01EB017B01E40EF51E00E010E09E
:10064000CE15DF0561F06991D601ED91FC91019025
:10065000F081E02DC6010995080F191FF1CFC801DF
:10066000DF91CF911F910F91FF90EF90DF90CF908E
:100670000895833081F028F4813099F08230A1F020
:1006800008958630A9F08730B9F08430D1F4809194
:1006900080008F7D03C0809180008F7780938000E1
:1006A000089584B58F7702C084B58F7D84BD089589
:1006B0008091B0008F7703C08091B0008F7D8093D0
:1006C000B0000895CF93DF93282F30E0F901EE5862
:1006D000FF4F8491F901E152FC4FD491F901E553A8
:1006E000FC4FC491CC2391F081110E943903EC2F6F
:1006F000F0E0EE0FFF1FE859FF4FA591B491EC9188
:10070000ED2381E090E021F480E002C080E090E001
:10071000DF91CF9108951F93CF93DF93282F30E07F
:10072000F901EE58FF4F8491F901E152FC4FD49149
:10073000F901E553FC4FC491CC23C1F0162F811170
:100740000E943903EC2FF0E0EE0FFF1FE954FC4F3D
:10075000A591B4919FB7F894111104C08C91D095D4
:10076000D82302C0EC91DE2BDC939FBFDF91CF91A9
:100770001F910895A0E0B1E05E969C915E97E92FED
:10078000092E000CFF0BE050FF4F80839F5F5E96A9
:100790009C930895E1E6F4E020813181D901AF59BD
:1007A000BB4F12968C932F5F3F4F31832083089568
:1007B000009769F0FC0101900020E9F73197AF0143
:1007C000481B590BBC0182E794E00C94110380E0B4
:1007D00090E00895CF93DF930E94D803EC010E942C
:1007E00087028C0F9D1FDF91CF910895CF92DF92EA
:1007F000EF92FF920F931F93CF93DF93CDB7DEB7A6
:10080000E2970FB6F894DEBF0FBECDBF8C01E0902B
:100810006304CE2C0E2C000CDD08C6010E94AF092B
:10082000892B21F0C6010E94BA09E82EF0906404D9
:10083000CF2C0F2C000CDD08C6010E94AF09892BBC
:1008400021F0C6010E94BA09F82EEBE5F2E020E0A3
:1008500030E08E2DEE0C990B4F2DFF0C550B608167
:1008600070E06817790799F4618170E06417750783
:1008700071F4628170E06017710749F4220F331F31
:10088000220F331FF901E55AFD4F838121C02F5FED
:100890003F4F34962D30310511F783E694E09F9356
:1008A0008F938FE892E09F938F931F9282E38F93B1
:1008B0008E010F5F1F4F1F930F930E94C209C80143
:1008C0000E94EA030FB6F894DEBF0FBECDBF84E1ED
:1008D000E2960FB6F894DEBF0FBECDBFDF91CF9189
:1008E0001F910F91FF90EF90DF90CF9008951F928E
:1008F0000F920FB60F9211242F933F938F939F93D4
:10090000EF93FF932091190430911A0480911B04F6
:1009100090911C042817390731F48091C1008F7D14
:100920008093C10014C0E0911B04F0911C04E752B5
:10093000FC4F208180911B0490911C0401968F73C1
:10094000992790931C0480931B042093C600FF9169
:10095000EF919F918F913F912F910F900FBE0F902C
:100960001F9018951F920F920FB60F9211242F937C
:100970004F935F938F939F93EF93FF938091C0006A
:1009800082FD1CC02091C60080915D0490915E04A0
:1009900040915F045091600401968F739927481726
:1009A000590771F0E0915D04F0915E04E35EFB4F46
:1009B000208390935E0480935D0402C08091C60002
:1009C000FF91EF919F918F915F914F912F910F9098
:1009D0000FBE0F901F9018951F920F920FB60F9297
:1009E00011242F933F938F939F93AF93BF93809145
:1009F000D5039091D603A091D703B091D80330913D
:100A00006E0323E0230F2D3720F40196A11DB11DA5
:100A100005C026E8230F0296A11DB11D20936E0389
:100A20008093D5039093D603A093D703B093D803B4
:100A300080916A0390916B03A0916C03B0916D0358
:100A40000196A11DB11D80936A0390936B03A0933F
:100A50006C03B0936D03BF91AF919F918F913F91C4
:100A60002F910F900FBE0F901F901895E2E7F4E0C2
:100A70001382128288EE93E0A0E0B0E08483958335
:100A8000A683B7838FE492E0918380838DE194E025
:100A90009587848789ED93E09787868785EC90E03A
:100AA000918B808B84EC90E0938B828B80EC90E038
:100AB000958B848B81EC90E0978B868B82EC90E019
:100AC000918F808F86EC90E0938F828F84E0848F6B
:100AD00083E0858F87E0868F85E0878F81E080A324
:100AE0000895CF93DF93CDB7DEB7EF970FB6F894A5
:100AF000DEBF0FBECDBF789484B5826084BD84B55F
:100B0000816084BD85B5826085BD85B5816085BD08
:100B100080916E00816080936E00109281008091C0
:100B20008100826080938100809181008160809348
:100B30008100809180008160809380008091B1006D
:100B400084608093B1008091B00081608093B00098
:100B500080917A00846080937A0080917A0082602C
:100B600080937A0080917A00816080937A008091EE
:100B70007A00806880937A001092C100E091860428
:100B8000F091870481E090E09C010090920402C003
:100B9000220F331F0A94E2F72083E0918204F09140
:100BA00083041082E0918404F091850427E6208379
:100BB00010929304E0918804F091890440819C0193
:100BC00000908E0402C0220F331F0A94E2F7242BF8
:100BD0002083E0918804F091890440819C01009079
:100BE0008F0402C0220F331F0A94E2F7242B2083C4
:100BF000E0918804F091890440819C010090900468
:100C000002C0220F331F0A94E2F7242B2083E091C5
:100C10008804F091890420810090910402C0880F1B
:100C2000991F0A94E2F78095822380838DE00E94C9
:100C3000250285E00E94250286E00E9425021E0111
:100C400022E2220E311CCE0101964C015AE0452EC3
:100C5000512C612C712CEE24E394F12C82E794E06A
:100C60000E94C1028F3FEFEF9E0709F492C2E0910C
:100C7000D4038D30910579F08A30910561F091E0CF
:100C80009E0F9093D403F0E0E159FC4F808394369B
:100C900008F47FC2E92FF0E0E159FC4F1082109276
:100CA000D4038FE6A82E83E0B82EF50180E090E013
:100CB000AF014F5653402191222389F0283011F083
:100CC0002F3721F40097A1F30197F2CF4817590766
:100CD00021F0DC01A159BC4F2C930196E9CFFC0116
:100CE000E159FC4F1082E0E0F1E08FEF819321E0C9
:100CF000EE31F207D9F710921E01109262041092A1
:100D000061041092710410927004C12CD12CF50171
:100D100081915F01882309F467C0282F082E000CF9
:100D2000330BF901E55BFE4F0081002E000C110B27
:100D3000F601EE0FFF1FEE0FFF1FE55CFE4FE00F09
:100D4000F11F9081923099F024F4913041F06801C4
:100D5000DECF983009F41DC29930F1F0F8CF0E942F
:100D6000CA03CA94CD2899F701E010E0F0CF609152
:100D70007004709171049AE0969FA001979F500DA6
:100D8000112420533109240F351F3093710420930F
:100D900070040E94CA03DBCFE2E0CE16D10451F406
:100DA00083E10E94BA03809171040E94BA0380918A
:100DB00070040DC080E00E94CA038091610490918C
:100DC000620401970E94F603843109F4E2C10E9493
:100DD000BA0310926204109261041092710410928E
:100DE000700400E010E0B3CF809161049091620440
:100DF000892BE9F0F2E0CF16D10451F483E10E948F
:100E0000BA03809171040E94BA03809170040DC0EE
:100E100080E00E94CA03809161049091620401976E
:100E20000E94F603843109F4B4C10E94BA038FEF23
:100E30000E94BA0300E011E09EE1B92E68012FEF95
:100E4000C21AD20AF801A080FFEFAF1609F4A1C1BF
:100E50001F92AF9280EA92E09F938F931F92BF926E
:100E60003F922F920E94C209C1010E94EA030FB66D
:100E7000F894DEBF0FBECDBF9DE0A91609F467C090
:100E80009A1548F0E2E0AE1609F491C0FAE0AF1608
:100E900009F4F8C07CC126E1A21661F08EEFA81615
:100EA00021F095E1A91273C144C184EB92E00E9444
:100EB000EA036DC18CE893E00E94990281E693E019
:100EC0000E94990286E393E00E9499028BE093E0EE
:100ED0000E94990280EE92E00E94990285EB92E0D6
:100EE0000E9499028AE892E00E9499028FE592E0BE
:100EF0000E94990284E392E00E94990289E092E0C4
:100F00000E9499028EED91E00E94990283EB91E09C
:100F10000E94990288E891E00E9499028DE591E093
:100F20000E94990282E391E00E94990287E091E099
:100F30000E9499028CED90E00E94990281EB90E072
:100F40000E94990286E890E00E94990220C16801FF
:100F5000E2E0CE0ED11CF8018181823028F08B3086
:100F6000B1F088EC92E0DFC0813021F048F08B30A6
:100F700071F00DC1109226011092250161E005C0AB
:100F8000109226011092250160E08DE078C08091DA
:100F9000250190912601892B29F0109226011092AB
:100FA0002501F5C0F0922601E0922501F0C068010C
:100FB000F2E0CF0ED11CF8018181873030F485300A
:100FC000B8F4882309F445C010C08B3071F4F801DF
:100FD00082818E3009F0D7C0F0922A01E092290177
:100FE0006801F3E0CF0ED11CCEC08EED92E09BC025
:100FF000853029F08630C1F08111C9C02AC0109215
:1010000022011092210160E086E00E948B03F092A1
:101010002001E0921F0161E085E00E948B031092A5
:10102000240110922301B3C01092200110921F01DD
:1010300060E085E00E948B03F0922201E0922101A2
:1010400061E086E00E948B03F0922401E09223018C
:101050009EC0109228011092270110922A0110922E
:1010600029011092200110921F0160E085E00E948A
:101070008B03109222011092210160E086E00E9411
:101080008B0385C0F80181818B3009F04FC08281CC
:10109000833109F046C06801F5E0CF0ED11CF8019C
:1010A00083819481982789279827092E000CAA0B01
:1010B000BB0B80932B0190932C01A0932D01B09337
:1010C0002E0184EF92E00E94D803A0902B01709132
:1010D0002C0180912D0190912E0119A28E010F5D9E
:1010E0001F4F6A2DA30192010E94860C8A2DFAE0FF
:1010F0002F9F80191124015011098A3014F4805D4A
:1011000001C0895CF8018083A22E732FCA01232BB2
:10111000242B252B31F7C8010E94D8030E94870297
:1011200036C086E093E00E94EA0333C081E293E098
:10113000FACF6801F2E0CF0ED11CF80181818C302A
:10114000F9F486E00E946203182F092F85E00E94BF
:1011500062030F931F939F938F9387E393E09F9373
:101160008F931F92BF929F928F920E94C209C401D7
:101170000E94EA030FB6F894DEBF0FBECDBF07C0D2
:1011800080E593E0D0CFF0922801E092270186011C
:1011900055CE8091250190912601892BC9F18FB7F9
:1011A000F894A090D503B090D603C090D703D09008
:1011B000D8038FBF80912F0190913001A091310110
:1011C000B0913201B601A501481B590B6A0B7B0B8C
:1011D00080912B0190912C01A0912D01B0912E01B5
:1011E000481759076A077B0798F08DE00E94620351
:1011F000892B11F060E001C061E08DE00E948B035B
:10120000A0922F01B0923001C0923101D0923201F0
:101210008091270190912801892B09F49AC080912F
:10122000290190912A01892B09F443C08FB7F894C2
:10123000A090D503B090D603C090D703D090D80328
:101240008FBF8091370190913801A0913901B09101
:101250003A01B601A501481B590B6A0B7B0B809123
:101260002B0190912C01A0912D01B0912E014817D6
:1012700059076A077B0708F46CC085E00E94620387
:1012800060E0892B31F085E00E948B0361E086E00D
:1012900005C086E00E948B0361E085E00E948B031D
:1012A000A0923701B0923801C0923901D0923A0130
:1012B00050C08FB7F894A090D503B090D603C090DB
:1012C000D703D090D8038FBF809133019091340120
:1012D000A0913501B0913601B601A501481B590B0B
:1012E0006A0B7B0B80912B0190912C01A0912D0119
:1012F000B0912E01481759076A077B0750F180917A
:1013000023019091240160E0892B69F486E00E941A
:101310008B0385E00E946203892B11F060E001C01D
:1013200061E085E00CC085E00E948B0386E00E94AE
:101330006203892B11F060E001C061E086E00E9449
:101340008B03A0923301B0923401C0923501D09248
:1013500036010E940D0382CCF8940C94E50C85FDB7
:101360000C94D30B806291110C94D30B81568A514B
:10137000D8F708959111089581548A5108F4805E38
:10138000855A0895AEE0B0E0E8ECF9E00C94B60CB4
:101390000D891E898F89988D26E02C831A830983F5
:1013A00097FF02C080E090E801979E838D83AE0195
:1013B000455E5F4F698D7A8DCE0101960E94F209DC
:1013C0004D815E8157FD0AC02F8138854217530732
:1013D0000CF49A01F801E20FF31F10822E96E4E05C
:1013E0000C94D20CABE0B0E0E8EFF9E00C94A80C60
:1013F0006C017B018A01FC0117821682838181FFC7
:10140000CCC1CE0101963C01F6019381F70193FD19
:10141000859193FF81917F01882309F4BAC18532B8
:1014200039F493FD859193FF81917F01853229F4F1
:10143000B60190E00E94EC0BE7CF912C212C312CCF
:10144000FFE1F315D8F08B3279F038F4803279F07F
:101450008332A1F4232D20611DC08D3261F08033D1
:1014600069F4232D216016C0832D8260382EE32D70
:10147000E4603E2E2AC0F32DF8601DC037FC2DC05D
:1014800020ED280F2A3040F08E32B9F436FC81C1AD
:10149000232D2064322E19C036FE06C08AE0989EA5
:1014A000200D1124922E11C0EAE02E9E200D112451
:1014B000222EF32DF0623F2E08C08C3621F4832DAE
:1014C0008068382E02C0883641F4F70193FD85917B
:1014D00093FF81917F018111B3CF982F9F7D955408
:1014E000933028F40C5F1F4F9FE399830DC0833620
:1014F00031F0833771F0833509F059C021C0F8010C
:10150000808189830E5F1F4F88248394912C53011F
:1015100013C02801F2E04F0E511CF801A080B180E9
:1015200036FE03C0692D70E002C06FEF7FEFC5018A
:101530000E94E10B4C018201F32DFF773F2E16C074
:10154000280122E0420E511CF801A080B18036FE35
:1015500003C0692D70E002C06FEF7FEFC5010E94EC
:10156000D60B4C01F32DF0683F2E820133FC1BC0DB
:10157000822D90E088169906B0F4B60180E290E0E2
:101580000E94EC0B2A94F4CFF50137FC859137FECD
:1015900081915F01B60190E00E94EC0B21102A942A
:1015A00021E0821A91088114910471F7E8C0843611
:1015B00011F0893641F5F80137FE07C0608171816D
:1015C000828193810C5F1F4F08C060817181072E5B
:1015D000000C880B990B0E5F1F4FF32DFF763F2EEB
:1015E00097FF09C090958095709561957F4F8F4FBB
:1015F0009F4FF0683F2E2AE030E0A3010E94280CA4
:10160000882E861845C0853731F4232D2F7EB22EC3
:101610002AE030E025C0932D997FB92E8F36C1F096
:1016200018F4883579F0B5C0803719F0883721F083
:10163000B0C0E92FE061BE2EB4FE0DC0FB2DF460FA
:10164000BF2E09C034FE0AC0292F2660B22E06C064
:1016500028E030E005C020E130E002C020E132E0C7
:10166000F801B7FE07C060817181828193810C5FB0
:101670001F4F06C06081718180E090E00E5F1F4FB8
:10168000A3010E94280C882E8618FB2DFF773F2E81
:1016900036FE0DC0232D2E7FA22E891458F434FE61
:1016A0000BC032FC09C0832D8E7EA82E05C0B82C3D
:1016B000A32C03C0B82C01C0B92CA4FE0FC0FE019E
:1016C000E80DF11D8081803321F49A2D997EA92E99
:1016D00009C0A2FE06C0B394B39404C08A2D8678D4
:1016E00009F0B394A3FC11C0A0FE06C0B21488F4A4
:1016F000280C922C9B180EC0B21460F4B60180E244
:1017000090E00E94EC0BB394F7CFB21418F42B18AE
:1017100002C0982C212CA4FE10C0B60180E390E0FA
:101720000E94EC0BA2FE17C0A1FC03C088E790E06A
:1017300002C088E590E0B6010CC08A2D867859F089
:10174000A1FE02C08BE201C080E2A7FC8DE2B601DF
:1017500090E00E94EC0B891438F4B60180E390E02D
:101760000E94EC0B9A94F7CF8A94F301E80DF11DD7
:101770008081B60190E00E94EC0B8110F5CF222011
:1017800009F442CEB60180E290E00E94EC0B2A946C
:10179000F6CFF6018681978102C08FEF9FEF2B96DF
:1017A000E2E10C94C40C992788270895FC01059068
:1017B000615070400110D8F7809590958E0F9F1F53
:1017C0000895FC016150704001900110D8F7809598
:1017D00090958E0F9F1F08950F931F93CF93DF93C4
:1017E000FB01238121FD03C08FEF9FEF2CC022FF5F
:1017F00016C046815781248135814217530744F42E
:10180000A081B1819D012F5F3F4F318320838C9355
:10181000268137812F5F3F4F3783268314C08B018A
:10182000EC01FB010084F185E02D0995892BE1F69F
:10183000D80116968D919C911797019617969C93B7
:101840008E931697CE01DF91CF911F910F9108953E
:10185000FA01AA27283051F1203181F1E8946F93E1
:101860006E7F6E5F7F4F8F4F9F4FAF4FB1E03ED087
:10187000B4E03CD0670F781F891F9A1FA11D680F25
:10188000791F8A1F911DA11D6A0F711D811D911D58
:10189000A11D20D009F468943F912AE0269F1124CD
:1018A0003019305D3193DEF6CF010895462F477031
:1018B000405D4193B3E00FD0C9F7F6CF462F4F708C
:1018C000405D4A3318F0495D31FD4052419302D0EA
:1018D000A9F7EACFB4E0A695979587957795679590
:1018E000BA95C9F700976105710508959B01AC0190
:1018F0000A2E06945795479537952795BA95C9F7B7
:10190000620F731F841F951FA01D0895A1E21A2E58
:10191000AA1BBB1BFD010DC0AA1FBB1FEE1FFF1F93
:10192000A217B307E407F50720F0A21BB30BE40BE3
:10193000F50B661F771F881F991F1A9469F760952A
:101940007095809590959B01AC01BD01CF010895E4
:101950002F923F924F925F926F927F928F929F92BF
:10196000AF92BF92CF92DF92EF92FF920F931F93AD
:10197000CF93DF93CDB7DEB7CA1BDB0B0FB6F8945E
:10198000DEBF0FBECDBF09942A88398848885F849E
:101990006E847D848C849B84AA84B984C884DF800F
:1019A000EE80FD800C811B81AA81B981CE0FD11DF3
:1019B0000FB6F894DEBF0FBECDBFED010895EE0F58
:0E19C000FF1F0590F491E02D0994F894FFCFDD
:1019CE00FF0000000000000000000000000000000A
:1019DE0000000000000000000000000000000000F9
:1019EE000000000000000000000000F401000000F4
:1019FE0000000000000000000000000801020808BE
:101A0E000101090808020908080808030303030373
:101A1E000303030303030303030303030303030388
:101A2E000303030303030303030303030303030378
:101A3E00030303030303030303030302020202026D
:101A4E000202020202030303030303030101010165
:101A5E000101010101010101010101010101010168
:101A6E00010101010101030303030303010101014C
:101A7E000101010101010101010101010101010148
:101A8E000101010101010303030303030303030324
:101A9E000303030303030303030303030303030308
:101AAE0003030303030303030303030303030303F8
:101ABE0003030303030303030303030303030303E8
:101ACE0003030303030303030303030303030303D8
:101ADE0003030303030303030303030303030303C8
:101AEE0003030303030303030303030303030303B8
:101AFE0003030303030303030303030303030303A8
:101B0E000303030303030303030303000000004561
:101B1E00021103FD02C102E102B6026F6603006FFD
:101B2E006E02016C65030272650305677205066439
:101B3E0031030D7365030A626C050B6C65040C733F
:101B4E0074061568650416766507FE7267020E4206
:101B5E00616420436F6D6D616E643A5B25735D0049
:101B6E0050726F6365737320436F6D6D616E645B4E
:101B7E0025695D0050726F6772616D2056657273D4
:101B8E00696F6E20312E3000426164207061726187
:101B9E006D6574657220666F722044313300426148
:101BAE006420706172616D6574657220666F72205B
:101BBE004C454400496E74657276616C20697320E1
:101BCE007365743A200042616420706172616D65C4
:101BDE0074657220666F7220696E74657276616CC0
:101BEE000042616420706172616D65746572206679
:101BFE006F7220534554004C4544733A205265642D
:101C0E005B25645D2C20477265656E5B25645D0007
:101C1E0042616420706172616D6574657220666FD9
:0A1C2E007220737461747573000076
:00000001FF
